:020000040800F2
:10000000185700206502000881330008292C0008D9
:100010007D330008FD070008754900080000000056
:100020000000000000000000000000007141000816
:100030001908000800000000014100089D41000867
:100040007F0200087F0200087F0200087F0200088C
:100050007F0200087F0200087F0200087F0200087C
:100060007F0200087F0200087F0200087F0200086C
:100070007F0200087F0200087F0200087F0200085C
:100080007F0200087F0200087F0200087F0200084C
:100090007F0200087F0200087F0200087F0200083C
:1000A0007F0200087F0200087F0200087F0200082C
:1000B0007F0200087F0200087F0200087F0200081C
:1000C0007F0200087F0200087F0200087F0200080C
:1000D0007F020008694900087F0200087F020008CB
:1000E0007F0200087F0200087F0200087F020008EC
:1000F0007F0200087F0200087F0200087F020008DC
:100100007F0200087F0200087F0200087F020008CB
:100110007F0200087F0200087F0200087942000881
:100120007F0200087F020008010800087F02000823
:100130007F02000800000000000000007F020008AD
:100140007F0200087F0200087F0200087F0200088B
:100150007F0200087F0200080D0800087F020008E7
:100160007F0200087F0200087F0200087F0200086B
:100170007F0200087F02000800000000000000006D
:100180007F0200087F02000800F002F800F05BF830
:1001900014A696E8000CB244B344DA4501D100F04D
:1001A00052F8BAE80F000FA696E83000A5EB040558
:1001B00004EB0607AAEB0704A7F101074FEA1515A0
:1001C0004FEA3414A4F10104AC4201D300F03BF82F
:1001D00013F0010F18BFFB1A43F0010300F001F800
:1001E000DBE7184780740000A0740000103A24BFB9
:1001F00078C878C1FAD8520724BF30C830C144BF8C
:1002000004680C6070470000704700000023002461
:1002100000250026103A28BF78C1FBD8520728BF16
:1002200030C148BF0B6070471FB506F043FE00F0B9
:1002300081FA04000020002106F026FE401C6060C8
:100240001FBD10B510BD00F050FA1146FFF7ECFFCE
:1002500004F092FB00F080FA03B4FFF7F2FF03BC56
:1002600000F0C4FA0948804709480047FEE7FEE766
:10027000FEE7FEE7FEE7FEE7FEE7FEE7FEE7FEE756
:1002800004480549054A064B7047000065420008CE
:100290008901000818510020185700201853002029
:1002A0001853002053EA020C00F069802DE9F04B4E
:1002B0004FF00006002B1FBFB3FA83F503FA05F4D5
:1002C00024FA05F65E4012BF1643B2FA82F502FA2E
:1002D00005F4C5F120051EBF22FA05FC44EA0C0412
:1002E000203556EA044C4FEA144418BF641C4FF002
:1002F00000084FF00009904271EB030C39D300293C
:1003000019BFB1FA81F701FA07F6B0FA80F700FADF
:1003100007F6C7F120071EBF20FA07FC46EA0C06C5
:100320002037B6FBF4FCA7EB0507103F07F01F0BC7
:10033000CBF120062CFA06F60CFA0BFB44BFB346B1
:100340000026202FA4BF5E464FF0000B5BEA060C90
:1003500008BF4FF0010B19EB0B0948EB0608ABFB8C
:10036000027C06FB02CC0BFB03CCC01B71EB0C0127
:10037000C1E70B46024641464846BDE8F08B13B53F
:10038000084318BF4FF0FF300146AFF30080BDE8CF
:100390001C40704770B5064600F0DEF8046805465C
:1003A00030460A22002100F0DBF82C6070BD30B529
:1003B00005460B462A4613F8014B12F8010B08B10B
:1003C000A042F8D01CB1002802D06D1CF1E72846ED
:1003D00030BD40EA010310B59B070FD1042A0DD3AD
:1003E00010C808C9121F9C42F8D020BA19BA884216
:1003F00001D9012010BD4FF0FF3010BD1AB1D30755
:1004000003D0521C07E0002010BD10F8013B11F88A
:10041000014B1B1B07D110F8013B11F8014B1B1BB3
:1004200001D1921EF1D1184610BD10B5431C02E057
:1004300010F8011B71B18107FAD14FF0013202C8E7
:100440008C1A8C4314EAC211F9D0C01A0A0603D0E0
:10045000C01E10BDC01A10BD0A0401D0801E10BD00
:100460000902FCD0401E10BD032A40F2308010F07B
:10047000030C00F0158011F8013BBCF1020F62443F
:1004800098BF11F801CB00F8013B38BF11F8013BD0
:10049000A2F1040298BF00F801CB38BF00F8013B7D
:1004A00011F0030300F09480083AC0F0088051F87E
:1004B000043B083A51F804CBA0E80810F5E7121DF8
:1004C0005CBF51F8043B40F8043BAFF30080D20717
:1004D00024BF11F8013B11F801CB48BF11F8012BE3
:1004E00024BF00F8013B00F801CB48BF00F8012B06
:1004F000704702F0FF0343EA032242EA024200F09F
:1005000002B84FF0000200B51346944696462039D3
:1005100022BFA0E80C50A0E80C50B1F12001BFF4BC
:10052000F7AF090728BFA0E80C5048BF0CC05DF822
:1005300004EB890028BF40F8042B08BF704748BF70
:1005400020F8022B11F0804F18BF00F8012B7047E4
:100550007047704770470000004870471000002047
:100560002DE9F04791460F4680460446002614F8D0
:10057000015B2DB100F062F80068405DC007F6D164
:100580002B2D02D02D2D18D0641E4A463946204608
:1005900000F05CF827B13968A14201D1C7F80080AA
:1005A0004FF0020471050BD54042002803DDFFF730
:1005B000D3FF0460A007BDE8F08746F48066E4E757
:1005C0000028F8DAFFF7C8FF04606FF00040F2E798
:1005D00010B5203AC0F00B80B1E81850A0E81850D0
:1005E000B1E81850A0E81850203ABFF4F5AF5FEA20
:1005F000027C24BFB1E81850A0E8185044BF18C9C5
:1006000018C0BDE810405FEA827C24BF51F8043B6B
:1006100040F8043B08BF7047D20728BF31F8023BBF
:1006200048BF11F8012B28BF20F8023B48BF00F853
:10063000012B7047004870471000002010B500F0F3
:1006400079F8001D10BD00BF416800002DE9F05F82
:10065000824615468B4600270AF10104B946007808
:10066000302801D09DB113E014F8010B0127782840
:1006700003D0582801D045B10AE00DB1102D07D1A3
:10068000002714F8010B102502E0082500E00A25D8
:100690000026B0460EE005FB080005FB06F1012729
:1006A0001FFA80F801EB1046B6F5803F00D3B9463B
:1006B00014F8010B294600F041F80028EBDABBF1F1
:1006C000000F05D00FB1641E00E05446CBF8004087
:1006D000B9F1000F06D0FFF73FFF02210160C81EED
:1006E000BDE8F09F48EA0640FAE77546FFF7A2FF2B
:1006F000AE4605006946534620F00700854618B00F
:1007000020B5FFF7BDFDBDE820404FF000064FF0DB
:1007100000074FF000084FF0000BAC46ACE8C009F2
:10072000ACE8C009ACE8C009ACE8C00921F0070199
:100730008D46704700487047300000203A2800D2AC
:10074000303820F02002412A01D3A2F1370088423C
:1007500001D34FF0FF30704710B50446AFF300806F
:100760002046BDE81040FFF777BD00000000000004
:1007700030B44FF0013C50F8042B51F8043BCCFA54
:1007800052F4D51A20D1FCB950F8042B51F8043B8F
:10079000CCFA52F4D51A17D1B4B950F8042B51F849
:1007A000043BCCFA52F4D51A0ED16CB950F8042B94
:1007B00051F8043BCCFA52F4D51A05D1002CDAD00A
:1007C00030BC4FF00000704729BAB1FA81F111F046
:1007D0001801D1F120008440F2D1CA40CB4012F080
:1007E000FF0213F0FF0330BCD01A704701491820F4
:1007F000ABBEFEE72600020070470000FEE70000E7
:1008000040F21460C2F2000000F066B840F274607A
:10081000C2F2000000F060B87047000072B600BF7E
:10082000FEE7000070B5866D044600F025FB94F8E5
:100830003510022928D105462068216C026822F073
:1008400016020260426922F08002426109B9A16C7D
:1008500019B1016821F008010160016821F001016E
:10086000016000BF20680068C00715D000F004FBDD
:10087000401B0628F6D320206065032084F835004D
:10088000002184F8341070BD8020606501200021B3
:1008900084F8341070BD00BFE06D3F2101FA00F014
:1008A000B060012084F835000020002184F8341065
:1008B00070BD000090F83510022909D1052180F89B
:1008C00035100068016821F00101016000207047C7
:1008D0008021416501207047F0B581B00021009171
:1008E00040F20801C2F200010B68D0E9166148F23B
:1008F000B51537680822C1F64E358A403A42A3FB47
:1009000005350CD003681C68640708D51C6824F002
:1009100004041C60B260426D42F001024265012293
:100920008A403A4208D003685B691B0604D5B2606E
:10093000426D42F00202426504228A403A4208D0E7
:1009400003681B689B0704D5B260426D42F0040245
:10095000426510228A403A4219D001680B681B0791
:1009600015D5B2600B680A685B0309D4D20509D4B7
:100970000A6822F008020A60016C29B907E000BF8A
:10098000110341D4016C11B1044688472046C26D61
:10099000202101FA02F33B4243D001680F68FF06B1
:1009A0003FD5B36090F835700B68052F1CD123F04C
:1009B00016030B604B6923F080034B61036C0BB98A
:1009C000836C1BB10B6823F008030B603F2191403F
:1009D000B160012180F83510016D0022002980F8F6
:1009E000342054D158E000BF0A685B0310D4D2050C
:1009F00012D40A6822F010020A60012180F8351032
:100A0000002180F8341007E0816C0029BCD1BEE7DA
:100A1000110301D4416C00E0C16B11B10446884759
:100A20002046416DC1B3416DC9072ED0052180F824
:100A300035100168AA0A0B6823F001030B60009BC4
:100A40000133934200931AD80B68DB0717D0009B41
:100A500001339342009312D80B68DB070FD0009B41
:100A60000133934200930AD80B68DB0707D0009B41
:100A700001339342009302D80B68DB07DFD10121D9
:100A800080F83510002180F83410C16C21B101B01C
:100A9000BDE8F040084700BF01B0F0BD2DE9F041CE
:100AA000044600F0E9F9ECB10546022084F835006F
:100AB0000020216884F83400086820F001000860F4
:100AC00021680868C00711D000F0D6F9401B05283E
:100AD000F6D9032520230320636584F83550BDE84B
:100AE000F08100BF0120BDE8F08100BF086848F236
:100AF0003F02CFF21002D4E9013500EA020C04F102
:100B00000C0898E8C10143EA0C032B431843D4E9CD
:100B1000072E304338431043626A40EA0E00042A2D
:100B200040EA08031CD1206BD4E90A2E40EA0E00EB
:100B3000184308604869BEF1000F20F0030040EA46
:100B4000020040F0040C11D0B8F5005F36D0B8F1C7
:100B5000000F45D1022A46D0012A3BD032B942E0EB
:100B60000B60486920F0070040EA020C01F0F80031
:100B70004AF6AB221038CAF6AA22A0FB02231A09B1
:100B800047F21053C1F814C0C0F600039A5C40F25B
:100B9000FF335F284FF03F0021EA030100FA02F023
:100BA00088BF0431C4E916128860002301250020A3
:100BB000636584F83550BDE8F08100BF032AD5D8BD
:100BC000012540230120DFE802F0030E030500BFEA
:100BD00082E700BFAEF1C070B0FA80F0400904E0D7
:100BE000032A04D3C2D1CEF300600028BED0012571
:100BF00040230120636584F83550BDE8F081000092
:100C000090F834C0BCF1010F04BF0220704770B5EA
:100C10004FF0010C80F834C0D0F858E090F835C09F
:100C2000BCF1010F38D14FF0020C80F835C04FF005
:100C3000000CC0F854C0D0F800C08468056CC06DCA
:100C4000DCF80060402C26F48026CCF80060CCF85C
:100C500004300B4604BF13460A463F2101FA00F058
:100C6000CCF80830CCF80C20CEF80800DCF80000F6
:100C700040F01600CCF800002DB1DCF8000040F088
:100C80000800CCF80000DCF8000040F00100CCF8CF
:100C90000000002070BD00BF002180F83410022049
:100CA00070BD0000B0B5044600F0E6F8054640F21D
:100CB0000000C2F200000078611C18BF044400BFAD
:100CC00000F0DAF8401BA042FAD3B0BD2DE9F04F96
:100CD00083B000F1200200F13E4741F6004500924A
:100CE00007F1FF77C4F2020508224FEAB726A842AF
:100CF00008BF072200254FF000084FF00009072E1B
:100D000038BF4FEAB72201920AE000BF09F101099A
:100D100008F10208B9F1100F05F1040500F0A280F6
:100D20000F68012202FA09FE17EA0E0AEED0D1F886
:100D300004C003220CF003077E1E02FA08F4012E01
:100D40006FEA040B12D88468CE6804EA0B0406FA32
:100D500008F634438460446824EA0E06CCF3001499
:100D600004FA09F42643466004E000BF032F01D1D2
:100D700003271EE0C6688C6806EA0B0604FA08F42E
:100D80002643022FC66014D16FF00302009E02EAD0
:100D9000590756F807C005F01C040F220B69A24042
:100DA0002CEA0202A3401A43F251D1F804C00CF01D
:100DB0000307026807FA08F302EA0B021A431CF45D
:100DC000403F0260A2D0002243F644030292C4F2E4
:100DD00002031A6843F6004442F480421A601A681B
:100DE000C4F2010402F480420292029A29F0030242
:100DF0004FF6084C2244CFF6FF7C52F80C3005F039
:100E00000C070F26BE40B343019E06FA07F73B438B
:100E100042F80C30A2684B6842EA0A0743F60C4CD1
:100E2000DE0258BF22EA0A07A760C4F2010CDCF810
:100E300000209E0242EA0A0758BF22EA0A07CCF8BD
:100E4000007062689E0342EA0A0758BF22EA0A0756
:100E500067602268DB0342EA0A0758BF22EA0A07F2
:100E6000276053E703B0BDE8F08F0000002A08BFF9
:100E7000090481617047000044F61C20C2F20000A2
:100E800000687047002804BF01207047F0B581B0AA
:100E9000044690F83D0028B9002084F83C00204624
:100EA00000F090F9242084F83D002068016821F0CA
:100EB00001010160016841F400410160016821F411
:100EC0000041016000F080FB636848F2A16CC0F251
:100ED000010C40F60011C0F23D0163453CBF48F2F1
:100EE0008041C0F21E01884202D2012001B0F0BD53
:100EF0004DF68361C4F21B31A0FB01122168970CEF
:100F0000D1F804E04FF496762EF03F0545EA92457D
:100F10004D60774348F638160D6AC0F24106A7FBCC
:100F2000067625F03F07634538BF960C721C3A439E
:100F30000A62CA6948F2A0664CF6FF77C0F2010661
:100F4000B34222EA07020BD801385B00B0FBF3F092
:100F500001306FF31F30042898BF04201BE000BF4E
:100F6000A768013857B119277B43B0FBF3F0013074
:100F70006FF31F3070B100F5804007E003EB4303CF
:100F8000B0FBF3F001306FF31F3018B100F50040F3
:100F900001E000BF01201043C8610868D4E90723BD
:100FA00020F0C000104318430860886848F2FF3200
:100FB00004F10C0790438CCF18431043A669886056
:100FC000C86820F0FF0038433043C860086840F02C
:100FD0000100086000202021206484F83D10206377
:100FE00084F83E0001B0F0BD2DE9F04383B01E4609
:100FF000174689460446FFF73FFF94F83D10202925
:1010000024D10546206800BF816989071AD5FFF7FA
:1010100033FF411B20681A29F6D381698907F3D56C
:1010200000202021206384F83D1084F83E00216CCC
:1010300041F02001216484F83C00022003B0BDE8A7
:10104000F08300BF94F83C10012903D1022003B0C3
:10105000BDE8F083012184F83C100168C90703D181
:10106000016841F001010160016840F2020821F4C9
:1010700000610160212184F83D10102184F83E10A8
:101080000021216467626685618DC0F201082185B7
:10109000A8F10211E162E16A0A9E11F5803F18BFD2
:1010A00001291DD1016841F48071016020464FF093
:1010B000011100223346009501F016FE50B1206860
:1010C0000068C00544BF4FF400702064012003B0E5
:1010D000BDE8F0832069B0F5804F07D1FE2015E010
:1010E0000829DFD0216B1229DCD0DFE7062000EAD7
:1010F000D9102168F030086108F106012046324617
:101100002B4601F0D7FE0028E0D1FF20216800EA3D
:10111000090008612046414632462B4601F0CAFECE
:101120000028D3D100200290206841690291806993
:101130000290029806E000BF204631462A4601F0A0
:1011400075FD18BB208D68B3204631462A4601F054
:101150001DFFD8B9606A2168024612F8013B0B6195
:101160006262628D013A6285228D531E23854F692A
:101170007F07E1D51B04DFD0437802300B6160624A
:10118000608D01386085901E2085D5E7206C04288D
:101190009CD12068016841F400710160012003B016
:1011A000BDE8F0832068016841F4007101602020EF
:1011B00084F83D00002084F83E0084F83C0003B031
:1011C000BDE8F083B0B586B045F600010068C4F212
:1011D0000001002488420594CDE90344029401945F
:1011E00002D006B0B0BD00BF43F630050094C4F293
:1011F0000205286840F002002860286800F002001C
:10120000009000984FF4406001901220CDE9020454
:10121000032004900420059001F5D63001A9FFF7C2
:1012200055FD0094286940F480002861286900F485
:1012300080000090009806B0B0BD000040F20000B1
:1012400044F61C21C2F20000C2F2000100780A68D4
:10125000104408607047000080B543F60040C4F2B7
:101260000200016841F400710160016841F480618D
:101270000160016841F480710160032000F0C2F850
:101280000F2000F005F800F05DF8002080BD0000A0
:1012900070B586B0002543F640010195C4F2020105
:1012A0000A68044642F020020A60096801A801F0B9
:1012B000200101910199694600F066F9049E002E13
:1012C00018BF012600F080F94DF68361B040C4F2EA
:1012D0001B31A0FB01014FF0FF3000EB914140F2C8
:1012E000B87041F20042C2F20000C4F2000240F2C3
:1012F000E733C0E90021C0E902530561856100F0D0
:10130000FBFB08B106B070BD40F2B870C2F200003D
:1013100000F04EFC0028F5D1372000F035F80F2CF6
:101320000CD837202146002200F040F840F204019A
:101330000020C2F200010C6006B070BD012006B0B2
:1013400070BD000082B0002043F640010190C4F25D
:1013500002014A6842F480424A604A6802F48042CC
:101360000192019A00900868002240F080500860C5
:1013700008680F2100F08050009000986FF0010085
:1013800002B000F013B80000002848BF704700F01A
:101390001F01012202FA01F11C2202EAD0004EF2E2
:1013A0000012CEF2000281507047000010B54EF6D8
:1013B0000C5CCEF2000CDCF80030C3F3022E8EF091
:1013C0000704042C28BF0424BEF103034FF0FF3EA2
:1013D0000EFA04F438BF0023A14399400EFA03F338
:1013E0009A43114300F00F0200F160430901043AEF
:1013F00003F564436244002848BF02F10C031970EE
:1014000010BD00004EF60C51CEF200010A684FF6F6
:10141000FF031A4060F30A2242F0806040F0FD7042
:1014200008607047002804BF012070472DE9F04193
:1014300043F60808C4F202080446D8F8F8030D463B
:1014400000F00700814207D988F8F853D8F8F8036C
:1014500000F00700A84277D12068810717D541071F
:1014600005D5D8F8001041F4E051C8F80010010784
:1014700005D5D8F8001041F46041C8F80010D8F83C
:101480000010A26821F0F0011143C8F80010C00755
:1014900040D1D8F8F80300F00700854207D288F859
:1014A000F853D8F8F80300F00700A8424CD12068A0
:1014B000410707D5D8F80010E26821F4E051114344
:1014C000C8F80010000708D5D8F80000216920F4FA
:1014D000604040EAC100C8F8000000F09DF8D8F86C
:1014E000001046F6CE62C1F30311C0F60002515C53
:1014F00040F2080220FA01F140F20400C2F20000BA
:101500000068C2F200021160FFF7C2FE0020BDE8D1
:10151000F08100BF6068811E022907D258F8081CBC
:1015200089015CBF0120BDE8F08111E0012807D1ED
:1015300058F8081C89035CBF0120BDE8F08107E072
:1015400058F8081C890703D40120BDE8F08100BFCA
:10155000D8F8001021F003010843C8F80000FFF795
:101560008BFC064641F28837D8F80000616800F02D
:101570000C00B0EB810F8CD0FFF77EFC801BB842D3
:10158000F2D90320BDE8F0810F22026043F6080281
:10159000C4F20202136803F003034360136803F00C
:1015A000F0038360136803F4E053C360D2F800C013
:1015B0004FF4E05303EADC030361D2F8F80300F0D0
:1015C000070008607047000040F2080043F6080179
:1015D000C2F20000C4F202010068096846F6DE6249
:1015E000C1F38221C0F60002515CC8407047000080
:1015F00040F2080043F60801C2F20000C4F2020102
:101600000068096846F6DE62C1F34231C0F60002A6
:10161000515CC8407047000010B543F60404C4F2A2
:1016200002046168C1F3810142F20040C0F2F4009B
:10163000DFE801F002040A0210BD00BF47F64000D7
:10164000C0F27D1010BD00BF2068216823684902E8
:1016500047F64001C0F27D1100F03F02C3F388104D
:101660005CBF42F20041C0F2F401A1FB0001002383
:10167000FEF718FE21680222C1F3014102EB41018D
:10168000B0FBF1F010BD0000002804BF012070473E
:101690002DE9F04182B00446007843F60006C00709
:1016A000C4F202060CD0B06800F00C00042840F030
:1016B00081803068800303D56068002800F068816D
:1016C000207880071BD5B06810F00C0F09D0B068E7
:1016D00000F00C00082840F087807068400200F19C
:1016E00083803068800703D5E068012840F050818E
:1016F0003068216920F0F80040EAC10030602078AD
:10170000000713D4207840072AD4A569002D00F0E3
:101710003A81B06800F00C00082840F0A580012D47
:1017200040F00E81012002B0BDE8F0816069002820
:1017300000F082800020C4F247200121C0F8801E02
:10174000FFF79AFB054600BF706F8007DAD4FFF7FA
:1017500093FB401B0228F7D9032002B0BDE8F081BB
:10176000306C5FEAC0080AD400200190306C40F071
:1017700080503064306C00F080500190019847F246
:101780000007C4F200073868C00547D4386840F441
:1017900080703860FFF770FB054600BF3868C005F1
:1017A0003CD4FFF769FB401B0228F7D9032002B0A5
:1017B000BDE8F081B06800F00C00082803D1706823
:1017C00040023FF576AF61683068B1F5803F07D0E1
:1017D000B1F5A02F40F09A8040F48020306030684E
:1017E00040F4803030609AE0E068002840F2000069
:1017F000C4F247205CD001210160FFF73DFB0546A4
:10180000306880073FF574AFFFF736FB401B0228B6
:10181000F6D9032002B0BDE8F08100BFA168306FA7
:10182000012905D0052955D140F004003067306FFB
:1018300040F00100306756E00020C4F2472000214C
:10184000C0F8801EFFF718FB054600BF706F8007C9
:101850007FF558AFFFF710FB401B0228F6D9032095
:1018600002B0BDE8F08100BF0027C4F24727002086
:101870003866FFF701FB022D05460DD13068800167
:1018800040F18A80FFF7F8FA401B02284FF003006E
:10189000F4D902B0BDE8F0813068800173D5FFF75C
:1018A000EBFA401B02284FF00300F5D9F1E700BF27
:1018B00000210160FFF7E0FA054600BF30688007AD
:1018C0007FF51DAFFFF7D8FA401B02284FF0030049
:1018D000F4D9DEE720F001003067306F002920F0F6
:1018E000040030677AD0FFF7C7FA054641F288371F
:1018F000306F800700F18480FFF7BEFA401BB842CA
:10190000F6D9032002B0BDE8F08100BF20F480309A
:1019100030603068002920F4802030607AD0FFF7F2
:10192000ABFA0546306880033FF5CAAEFFF7A4FA6C
:10193000401B6428F6D9032002B0BDE8F08100BF47
:101940007068E16900F480028A4221D1216A00F0C6
:101950003F028A421CD147F6C071626A0140B1EB76
:10196000821F15D1A16A4FF6FF73C903994300F492
:101970004032A1F580318A420AD1E16A00F07060FC
:10198000B0EB016F04D1002002B0BDE8F08100BFD0
:10199000012002B0BDE8F08104F11C052FCD084301
:1019A00040EA8210D9034FF6FF729143A1F58031CE
:1019B00040EA05600843706001203866FFF75CFA72
:1019C000044600BF30688001DDD4FFF755FA001BE4
:1019D00002284FF00300F5D95BE700BFFFF74CFA90
:1019E000054641F2883700BF306F800708D5FFF702
:1019F00043FA401BB8424FF00300F5D949E700BF56
:101A0000B8F1000F3FF581AE306C20F080503064AB
:101A10007BE600BFFFF730FA054600BF3068800361
:101A20007FF54EAEFFF728FA401B64284FF0030005
:101A3000F4D92EE7704700007047000090F83C2072
:101A4000012A4FF0020254D010B580F83D20026800
:101A5000D2F804E0D2F808C00C682EF070032343DB
:101A600041F2FF74C4F20004A24253600EDC40F263
:101A7000FF73C4F200039A4216DCB2F1804F2BD000
:101A800040F20043C4F2000324E000BF40F2FF3301
:101A9000C4F201039A4213DC41F60003C4F20003CE
:101AA0009A4219D0002313E040F60003C4F2000369
:101AB0009A4211D040F60043C4F200030AE000BF8E
:101AC00044F20003C4F201039A4205D040F20043FD
:101AD000C4F201039A4204D149682CF080031943EF
:101AE00091600121002280F83D1080F83C20BDE883
:101AF0001040104670470000002804BF01207047C6
:101B000010B5044690F83D0028B9002084F83C0048
:101B1000204600F01FF8022084F83D002068211DB7
:101B200002F0B0FB012084F8460084F83E0084F8FF
:101B30003F0084F8400084F8410084F8420084F8B3
:101B4000430084F8440084F8450084F83D000020F8
:101B500010BD000082B0006844F20041C4F20101EF
:101B6000884213D0B0F1804F1FD10020019043F67E
:101B70004000C4F20200016841F001010160006808
:101B800000F001000190019802B070470020009021
:101B900043F64000C4F20200416841F40031416064
:101BA000406800F400300090009802B070470000D8
:101BB00090F83D1001291CBF01207047022180F8D8
:101BC0003D10006841F2FF72C168C4F20002904209
:101BD00041F00101C1600DDC40F2FF71C4F200016F
:101BE000884215DCB0F1804F2AD040F20041C4F2A7
:101BF000000123E040F2FF31C4F20101884213DC0E
:101C000041F60001C4F20001884219D0002113E01E
:101C100040F60001C4F20001884211D040F60041B4
:101C2000C4F200010AE000BF44F20001C4F2010165
:101C3000884205D040F20041C4F20101884206D139
:101C4000816801F00701062904BF00207047016880
:101C500041F00101016000207047000090F83C2035
:101C6000012A4FF002026CD080B580F83D20D0F8F8
:101C700000C04FF67772DCF8083023EA0202CCF895
:101C800008200B684F2B29DC1F2B45DD202B46D06D
:101C9000302B44D0402B40F0AF80D1F804E0C9682D
:101CA000DCF82030DCF8202022F00102CCF82020E3
:101CB000DCF8182022F0F00242EA011123F00A02B7
:101CC00042EA0E02CCF81810CCF82020DCF80810FC
:101CD00041F0470121F0300128E000BF6F2B33DDD8
:101CE000B3F5005F74D0B3F5805F21D0702B40F066
:101CF0008380D1E901E3C968DCF8082043EA0E03D8
:101D000022F47F4243EA01211143CCF80810DCF8A9
:101D1000081041F0770109E00BB1102B6CD1DCF811
:101D2000081021F07001194341F00701CCF80810A8
:101D30000022012180F83D10002180F83C10BDE810
:101D400080401046704700BF502B21D0602B53D1EC
:101D5000D1F804E0C968DCF82030DCF8202022F05B
:101D60001002CCF82020DCF8182022F4704242EA5D
:101D7000013123F0A00242EA0E12CCF81810CCF880
:101D80002020DCF8081041F0670121F01001CDE7B8
:101D9000D1F804E0C968DCF82030DCF8202022F01B
:101DA0000102CCF82020DCF8182022F0F00242EAF0
:101DB000011123F00A0242EA0E02CCF81810CCF806
:101DC0002020DCF8081041F0570121F02001ADE798
:101DD000D1E901E3C968DCF8082043EA0E0322F4E4
:101DE0007F4243EA01211143CCF80810DCF80810C7
:101DF00041F480419AE700BF01229AE77047000052
:101E000070B504460068C5680669B10716D515F0B7
:101E1000020113D06FF00201016101212177806975
:101E2000800703D02046FFF7E9FF05E0204600F0D9
:101E30008FF8204600F0CEF900202077700719D5E2
:101E400015F0040016D020686FF004010161022132
:101E50002177806910F4407F04D02046FFF7CEFF41
:101E600006E000BF204600F073F8204600F0B2F90B
:101E700000202077300717D515F0080014D020680F
:101E80006FF00801016104212177C069800703D048
:101E90002046FFF7B3FF05E0204600F059F8204642
:101EA00000F098F900202077F00619D515F0100001
:101EB00016D020686FF01001016108212177C069F8
:101EC00010F4407F04D02046FFF798FF06E000BFE3
:101ED000204600F03DF8204600F07CF900202077F5
:101EE000F00718BF15F0010002D1300609D412E046
:101EF00020686FF001010161204600F06DF93006A5
:101F000009D515F0800006D020686FF080010161CE
:101F10002046FFF78FFD700609D515F0400006D06A
:101F200020686FF040010161204600F05FF9B006C3
:101F300058BF70BD15F0200008D021686FF0200256
:101F400020460A61BDE87040FFF776BD70BD000015
:101F50007047000090F83C30012B04BF022070470E
:101F60004FEAB202032A00F2FF802DE9F043DFE8D6
:101F700002F003B13F7F00BF036840F200461C6AD5
:101F80001A6A24F0020422F001021A621A46D3F8F7
:101F900004C052F818EF8F6843F48065C4F201065C
:101FA000B54244EA070405D1CF6824F00C0427F0B9
:101FB00004073C430F68B54206D1D1E905582CF41B
:101FC00040762E4346EA080C2EF073063743C3F8DA
:101FD00004C09F614F6809695F631C629F6947F095
:101FE00008079F619F6927F004079F61B1E000BF68
:101FF000036840F200481C6A1A6A24F4007422F450
:1020000080721A621A46D3F804C052F81CEF8F6827
:1020100043F48065C4F20108454544EA072408D129
:10202000CF6840F2FF463F0224F4406427EA0606E8
:102030003443D1F80090454506D1D1E905562CF43A
:1020400040572E4347EA061C2EF0730747EA09075C
:10205000C3F804C0DF614F680969DF631C62DF6990
:1020600047F00807DF61DF6927F00407DF6170E0F0
:10207000036840F20045D3F820C01A6A43F4806731
:1020800022F480521A621A465C6852F81C8FD1F80A
:1020900000E08E68C4F20105AF4204D14D6924F41A
:1020A000804444EA85142CF4005747EA063728F4A4
:1020B000E64646EA0E265C60DE614E6809691E64EB
:1020C0001F62DF6947F40067DF61DF6927F480671B
:1020D000DF613DE0036840F200481C6A1A6A24F0A0
:1020E000200422F010021A621A46D3F804C052F8F3
:1020F00018EF8F6843F48065C4F20108454544EA4F
:10210000071407D1CF686FF0400624F0C00406EA38
:1021100007163443D1F80090454506D1D1E905565C
:102120002CF440672E4347EA860C2EF4E64747EA34
:102130000927C3F804C09F614F6809699F631C6247
:102140009F6947F400679F619F6927F480679F61DB
:1021500009021368194311600021BDE8F043002211
:1021600080F83C20084670470121002280F83C207E
:1021700008467047002804BF0120704710B5044688
:1021800090F83D0028B9002084F83C00204600F07B
:102190001FF8022084F83D002068211D02F072F82B
:1021A000012084F8460084F83E0084F83F0084F85B
:1021B000400084F8410084F8420084F8430084F829
:1021C000440084F8450084F83D00002010BD000064
:1021D0007047000070470000006841F20041C4F2FF
:1021E0000001884218BF7047FFF728B87047000009
:1021F00090F84230202B0BD194460A4600294FF02C
:10220000010118BFBCF1000F06D10846704700BF9E
:1022100002210846704700BFB0B582B001210163BA
:102220000025222145638262A0F82CC0456480F815
:102230004210C36B44F2515E44F2B164C0F6000E2A
:10224000C0F600040168C3E90FE444F2D534C0F6D7
:102250000004C3E913450431044618466346FEF7FB
:10226000CFFC0195216820460A68019249680191D6
:102270000199216931B300BF016851E8031F026869
:1022800041F4807142E80313E3B1016851E8031F90
:10229000026841F4807142E803139BB1016851E880
:1022A000031F026841F4807142E8031353B10168CF
:1022B00051E8031F026841F4807142E80313002BC8
:1022C000DAD100BF016851E8051F026841F0010141
:1022D00042E80513BBB3016851E8051F026841F0ED
:1022E000010142E8051373B3016851E8051F026854
:1022F00041F0010142E805132BB3016851E8051FC5
:10230000026841F0010142E80513002BDAD11AE01E
:10231000016851E8051F026841F0400142E80513D9
:10232000DBB1016851E8051F026841F0400142E855
:10233000051393B1016851E8051F026841F040019F
:1023400042E805134BB1016851E8051F026841F0EE
:10235000400142E80513002BDAD1016B012933D18A
:102360000021009101680A68009249680091009973
:10237000016851E8031F026841F0100142E80313AD
:10238000DBB1016851E8031F026841F0100142E827
:10239000031393B1016851E8031F026841F0100173
:1023A00042E803134BB1016851E8031F026841F092
:1023B000100142E80313002BDAD1002102B0BDE87E
:1023C000B0400846704700BF012102B0BDE8B040F0
:1023D00008467047B0B582B0006841F20002C4F20E
:1023E000010200219042019102D002B0B0BD00BFB5
:1023F00040F21465C2F20005286840F61861406892
:10240000C2F20001C0F1800040F69854088040F606
:102410000000C2F20004C2F2000021468022FFF751
:10242000E7FE286801AA0168002321F00801016085
:1024300040F27000C2F200000068214604F0B0F8DB
:1024400001980028D1D04EF60450CEF200004FF093
:1024500080510160BFF34F8FBFF36F8F02B0B0BDEB
:1024600070470000B0B582B001680A68CC684B695B
:1024700002F02F05202D04F0200505D125B102B072
:10248000BDE8B04002F07CB95FEA027C1EBF03F0F9
:10249000010E04F4907313EB0E0341D1036BD506C8
:1024A00018D5012B16D114F0100313D0002201927D
:1024B0000A6801924A680192019A496949064BD417
:1024C000818DC28DC38D002B18BF914240F0F481E5
:1024D00002B0B0BD13062DD514F080032AD090F8B9
:1024E0004120212AF4D18268B2F5805F03D10269CC
:1024F000002A00F06782026A531C036212784A6065
:10250000C28C013A1304C284E2D1C86820F0800072
:10251000C860C86840F04000C86002B0B0BD00BFED
:10252000D30718BF14F4807340F0D080530700F134
:10253000D380D8E05206CBD514F04002C8D0CA6888
:1025400022F04002CA60202180F8411002B0BDE8AC
:10255000B04000F065BB00BFC16B0A68526893B21F
:10256000002BB5D0858DAB42B2D2C285C969B1F519
:10257000807F00F0A080016851E8031F026821F409
:10258000807142E80313DBB1016851E8031F026860
:1025900021F4807142E8031393B1016851E8031FED
:1025A000026821F4807142E803134BB1016851E8DD
:1025B000031F026821F4807142E80313002BDAD173
:1025C000016851E8051F026821F0010142E8051386
:1025D000BBB3016851E8051F026821F0010142E820
:1025E000051373B3016851E8051F026821F001016A
:1025F00042E805132BB3016851E8051F026821F07A
:10260000010142E80513002BDAD11AE0016851E814
:10261000051F026821F0400142E80513DBB10168A3
:1026200051E8051F026821F0400142E8051393B10B
:10263000016851E8051F026821F0400142E80513D6
:102640004BB1016851E8051F026821F0400142E8E2
:102650000513002BDAD1202180F8421000210163FC
:10266000016851E8031F026821F0100142E80313DA
:10267000DBB1016851E8031F026821F0100142E854
:10268000031393B1016851E8031F026821F01001A0
:1026900042E803134BB1016851E8031F026821F0BF
:1026A000100142E80313002BDAD1C16B044608463F
:1026B000FEF7B8F8204602214163818DC28D891A48
:1026C00089B202B0BDE8B040FFF784BE436C43F06E
:1026D00001034364530706D5BEF1000F03D0436CDA
:1026E00043F002034364930706D5BEF1000F03D005
:1026F000436C43F004034364BCF1000F06D55EEA6B
:10270000050303D0436C43F008034364436C002B80
:102710003FF4DEAE920605D525B1044602F030F84E
:10272000216820464969426C01F0400102F008022C
:10273000891800F0B98000BF016851E8031F0268E2
:1027400021F4907142E80313BBB3016851E8031F01
:10275000026821F4907142E8031373B3016851E8F1
:10276000031F026821F4907142E803132BB3016840
:1027700051E8031F026821F4907142E80313002B13
:10278000DAD11AE0016851E8051F026821F0010161
:1027900042E80513DBB1016851E8051F026821F02A
:1027A000010142E8051393B1016851E8051F026871
:1027B00021F0010142E805134BB1016851E8051F02
:1027C000026821F0010142E80513002BDAD1016B08
:1027D000012924D1016851E8031F026821F010018A
:1027E00042E80313DBB1016851E8031F026821F0DE
:1027F000100142E8031393B1016851E8031F026816
:1028000021F0100142E803134BB1016851E8031FA6
:10281000026821F0100142E80313002BDAD12021D5
:1028200080F842100021016301684969490640F1BE
:10283000C380016851E8051F026821F0400142E8A9
:102840000513DBB1016851E8051F026821F0400162
:1028500042E8051393B1016851E8051F026821F0B1
:10286000400142E805134BB1016851E8051F0268B9
:1028700021F0400142E80513002BDAD1C16B002999
:1028800000F09A8044F2C932C0F6000204460846BD
:102890000A65FEF70FF800283FF41AAEE06B016DF1
:1028A00002B0BDE8B04008470446FFF7D9FD00205C
:1028B000606402B0B0BD00BF891A00BF026852E870
:1028C000032F036822F4907243E80325BDB3026826
:1028D00052E8032F036822F4907243E8032575B38E
:1028E000026852E8032F036822F4907243E803253C
:1028F0002DB3026852E8032F036822F4907243E874
:102900000325002DDAD11AE0026852E8052F03688A
:1029100022F0010243E80525DDB1026852E8052FE7
:10292000036822F0010243E8052595B1026852E8E8
:10293000052F036822F0010243E805254DB1026826
:1029400052E8052F036822F0010243E80525002D17
:10295000DAD1202280F8422000220263026852E885
:10296000032F036822F0100243E80325DDB102685B
:1029700052E8032F036822F0100243E8032595B1C3
:10298000026852E8032F036822F0100243E803258F
:102990004DB1026852E8032F036822F0100243E8A9
:1029A0000325002DDAD1022289B2426302B0BDE8CC
:1029B000B040FFF70FBD00BF02B0BDE8B040FFF769
:1029C0004FBD00BF026A32F8023B6FF35F234B60DA
:1029D000026295E5002804BF0120704710B5044647
:1029E00090F8410028B9002084F84000204600F00B
:1029F00021F8242084F841002068C16821F40051A6
:102A0000C160204601F03CFF2068016921F490413B
:102A10000161416921F02A014161C16841F400511D
:102A2000C16000202021606484F8411084F84210C5
:102A3000606310BD2DE9F04F87B000250446C4F255
:102A400002050068A5F5704100278842CDE90577A9
:102A5000CDE90377029703D007B0BDE8F08F00BF40
:102A600043F630000197C4F20200416902AE41F022
:102A70001001416141694FF0020A01F0100101911A
:102A80000199019701684FF0030B41F001010160CA
:102A900000684FF0070800F00100019001984FF422
:102AA0000070029028463146CDE903A7CDF814B056
:102AB000CDF81880FEF70AF901204FF48069CDE9BE
:102AC000040BCDF8188046F2404828463146CDE93F
:102AD000029AC4F20208FEF7F9F840F21465C2F255
:102AE00000054FF000662846C5E90086C5E9027773
:102AF000C5E90497C5E90677C5E90877FDF7CEFF74
:102B0000002818BFFDF78AFEE563AC6340F27465E8
:102B100008F17800C2F200054021C5E9000605F180
:102B20000800002280E806022846C5E90522C5E91A
:102B300007226A62FDF7B2FF002818BFFDF76EFE9C
:102B4000252005210022A563AC63FEF72FFC25207C
:102B5000FEF71AFC07B0BDE8F08F000070470000D8
:102B600070470000B0B590F84140202C1CBF0220F7
:102B7000B0BD134600294FF0010218BF002B01D150
:102B80001046B0BD0022212401628384C3844264C4
:102B900080F84140D0F838C044F2C96E44F27975EB
:102BA000C0F6000EC0F600050468CCE90FE544F25B
:102BB000D535C0F60005CCE91352221D0446604607
:102BC000FEF71EF8216820466FF040020A6000BF41
:102BD000016851E8051F026841F0800142E80513D1
:102BE000DBB1016851E8051F026841F0800142E84D
:102BF000051393B1016851E8051F026841F0800197
:102C000042E805134BB1016851E8051F026841F025
:102C1000800142E80513002BDAD100221046B0BD36
:102C20007047000070470000FEE7000070B50368C1
:102C3000044653F8140F400711D40E46481C29D0FF
:102C400086BB00BF1868400527D4FEF715F9236836
:102C500053F8140F400737D518684007F2D5002005
:102C600070BD00BF18684007F9D41868400514D437
:102C700018684007F3D4186840050ED41868400758
:102C8000EDD41868400508D4186840074FF00000DC
:102C900048BF70BD18684005E4D56FF480601860C7
:102CA000042012E0154603E053F8140F4007D6D471
:102CB00018684005F1D4FEF7DFF8401B2368B042E6
:102CC000F2D958694007EFD4202000212022216347
:102CD00084F83D2084F83E10226C104320640120CB
:102CE00084F83C1070BD00002DE9F04105460068F5
:102CF0001E46144601F47F0201338FB242D0DDF844
:102D00001880B2F5803F40F0878040693840C01B92
:102D1000B0FA80F04009844240F0C8804EB924E007
:102D200040693840C01BB0FA80F04009844240F04E
:102D3000BD80FEF7A1F8A0EB08012868B142EFD9E9
:102D400041693940C91BB1FA81F149098C42E7D187
:102D50009BE000BF40693840C01BB0FA80F04009DA
:102D600084424FF0000040F0A280FEF785F828680A
:102D700041693940C91BB1FA81F149098C42E9D155
:102D800083E000BFB2F5803F24D100BF41693940E4
:102D9000C91BB1FA81F149098C4240F08780416931
:102DA0003940C91BB1FA81F149098C4240F07E805B
:102DB00041693940C91BB1FA81F149098C4275D189
:102DC00041693940C91BB1FA81F149098C42DDD012
:102DD0006CE000BF81693940C91BB1FA81F1490932
:102DE0008C4263D181693940C91BB1FA81F149092B
:102DF0008C425BD181693940C91BB1FA81F1490923
:102E00008C4253D181693940C91BB1FA81F149091A
:102E10008C42DFD04AE000BF80693840C01BB0FA66
:102E200080F04009844241D146B923E080693840AE
:102E3000C01BB0FA80F04009844237D1FEF71CF87D
:102E4000A0EB08012868B142F0D981693940C91B5B
:102E5000B1FA81F149098C42E8D116E08069384025
:102E6000C01BB0FA80F0400984424FF0000018BF48
:102E7000BDE8F081FEF700F8286881693940C91B78
:102E8000B1FA81F149098C42E8D100202021286360
:102E900085F83D1085F83E00296C41F02001296439
:102EA00085F83C000120BDE8F08100BF0020BDE8AE
:102EB000F0810000F0B581B0044600681D4643690A
:102EC0008FB203EA0701B94202D1002001B0F0BD80
:102ED0004169164601323CD0490512D47EB300BF89
:102EE000FDF7CAFF411B2068B14203D9416939404F
:102EF000B9422BD141693940B942E6D0416949050F
:102F0000EED5016841F4007101606FF480614161A8
:102F1000042000212022216384F83D2084F83E1003
:102F2000226C1043206484F83C10012001B0F0BDF5
:102F300041693940B942C8D041694905E1D4FDF73A
:102F40009BFF206841693940B942F1D02020E0E779
:102F500041694905D5D441693940B942B5D0416983
:102F60004905CED441693940B942AED041694905DD
:102F7000C7D441693940B942A7D041694905C0D495
:102F800041693940B942E3D19FE7000070B5036859
:102F9000044653F8140F000611D40E46481C29D0DD
:102FA00086BB00BF1868400527D4FDF765FF23687E
:102FB00053F8140F000637D518680006F2D5002024
:102FC00070BD00BF18680006F9D41868400514D415
:102FD00018680006F3D4186840050ED41868000677
:102FE000EDD41868400508D4186800064FF00000BA
:102FF00048BF70BD18684005E4D56FF48060186064
:10300000042012E0154603E053F8140F0006D6D44E
:1030100018684005F1D4FDF72FFF401B2368B0422C
:10302000F2D958690006EFD4202000212022216324
:1030300084F83D2084F83E10226C10432064012067
:1030400084F83C1070BD000080B582B00020019073
:1030500043F63000C4F202000168002241F480010E
:1030600001600068052100F48000019001983A2079
:10307000FEF79CF93A20FEF787F946200521002249
:10308000FEF794F9462002B0BDE88040FEF77CB917
:1030900010B546F60072C0F600021420402101F07F
:1030A000E1FC40F27004C2F2000446F6E8622060DF
:1030B000C0F600020120012101F0D4FC606044F25E
:1030C000951047F21852C0F60000C0F60002002129
:1030D00001F012FDA06045F2096047F24C52C0F6C3
:1030E0000000C0F60002002101F006FDE06045F29C
:1030F000D56047F27052C0F60000C0F60002002111
:1031000001F0FAFC206145F2656047F29452C0F686
:103110000000C0F60002002101F0EEFC606110BD6D
:1031200070B586B0002543F630000595CDE903550E
:10313000CDE901550095C4F20200016840F6000493
:1031400041F0040101600168C4F2020401F00401CD
:103150000091009900950168002241F08001016012
:1031600001684FF4005601F080010091009900952C
:10317000016841F001010160016801F00101009165
:1031800000990095016841F00201016000684FF468
:10319000005100F00200009000982046FDF766FE06
:1031A0000120CDE9020501A9204601960495FDF70D
:1031B0008DFD06B070BD000080B540F2D46045F6CC
:1031C0000001C2F20000C4F2000141F68022002397
:1031D0004FF4804CC0F2060280E80E00C0E9033CC8
:1031E000C0E90533C0E90733FDF74CFE002808BFEE
:1031F00080BDBDE88040FDF711BB000080B540F206
:10320000287044F20041C2F20000C4F20101002320
:10321000532240F2E73C80E80E1003618361FEF721
:103220006BFC002808BF80BDBDE88040FDF7F6BA02
:1032300010B594B040F270700021C2F2000040F26C
:10324000E7340D91CDE90B110991CDE90711CDE9D5
:103250000511CDE90311CDE901114FF0804253234F
:10326000C0E9021401618021C0E900238161FEF7F9
:1032700043FC002818BFFDF7D1FA4FF480500A90A4
:1032800040F27070C2F200000AA9FEF7E7FC0028C5
:1032900018BFFDF7C3FA40F27070C2F20000FEF7EB
:1032A00069FF002818BFFDF7B9FA40F270700024DA
:1032B000C2F2000008A9CDE90844FEF7BFFB0028D0
:1032C00018BFFDF7ABFA6020CDE901040394059423
:1032D00040F27074C2F2000401A920460422FEF7F5
:1032E00039FE002818BFFDF799FA21680020B1F1D6
:1032F000804F1390CDE9110010900F9002D014B0C0
:1033000010BD00BF43F630010E90C4F202010A68FE
:1033100042F001020A60096801F001010E910E9964
:10332000CDE911000120022113900020CDE90F11F9
:10333000C4F202000FA9FDF7C9FC14B010BD0000D3
:1033400080B540F6000041F20001C2F20000C4F274
:10335000010100234FF00C0C4FF4E13280E80E0025
:10336000C0E90333C0E905C3C361FFF733FB00289D
:1033700008BF80BDBDE88040FDF750BAFEE7000001
:10338000FEE700002DE9F04182B06420FDF78AFCE1
:1033900040F2905440F2D465C2F20004AE20C2F272
:1033A000000560704FF0FF36284678212246022340
:1033B00000964FF00208FDF717FED52060702846F2
:1033C0007821224602230096FDF70EFE80206070D1
:1033D00028467821224602230096FDF705FEA82004
:1033E000607028467821224602230096FDF7FCFDF6
:1033F0003F20607028467821224602230096FDF780
:10340000F3FDD320607028467821224602230096DF
:10341000FDF7EAFD0020607028467821224602234D
:103420000096FDF7E1FD4027284678212246022339
:1034300067700096FDF7D8FD8D20607028467821D2
:10344000224602230096FDF7CFFD14206070284627
:103450007821224602230096FDF7C6FD20206070E9
:1034600028467821224602230096FDF7BDFD284616
:1034700078212246022384F801800096FDF7B4FDEE
:10348000A120607028467821224602230096FDF78D
:10349000ABFDC820607028467821224602230096A2
:1034A000FDF7A2FDDA20607028467821224602232B
:1034B0000096FDF799FD122060702846782122467B
:1034C00002230096FDF790FD812060702846782148
:1034D000224602230096FDF787FD7F206070284674
:1034E0007821224602230096FDF77EFDD9206070E8
:1034F00028467821224602230096FDF775FDF1202B
:10350000607028467821224602230096FDF76CFD64
:10351000DB20607028467821224602230096FDF7C2
:1035200063FD284678212246022367700096FDF746
:103530005BFDA42060702846782122460223009675
:10354000FDF752FDA620607028467821224602230E
:103550000096FDF749FDAF2060702846782122468D
:1035600002230096FDF740FD02B0BDE8F0810000A7
:1035700080B540F29010C2F200004FF48061FCF779
:10358000C0FF80BD2DE9F04F87B092F80090049203
:10359000B9F1000F039100F097800446581C029087
:1035A000187859780730C00848430430049D9A467B
:1035B0005FFA80FB4FF000081AE000BF221D069C56
:1035C000BA463D787B780399109FE0B2CDE9005769
:1035D00000F0FEF80298B044049A1FFA88F10078CF
:1035E00012F801900444B9F1000F12FA88F56BD07B
:1035F0004FFA89F1B1F1FF3FCDE9051408DD01264D
:1036000057469AF808A0BAF1000F25D131E000BF63
:1036100009F0E000C02807D1022657469AF808A012
:10362000BAF1000F18D124E009F0F000E02807D12A
:10363000032657469AF808A0BAF1000F0CD118E0FB
:1036400009F0F800F0283FD1042657469AF808A060
:10365000BAF1000F0DD000BF7C6800BF284621469C
:103660003246FCF7B6FE0028A8D0BAF1010A5C4445
:10367000F4D1F86805994268BA46002916D406784C
:103680004378A9F12001F01DC0085943069C01FBB5
:1036900000220399109FE0B2CDE9006700F098F88E
:1036A000DAF80C000126013095E700BF069C05788A
:1036B00043780399109FE0B2CDE9005700F088F8F5
:1036C000DAF80C00013086E707B0BDE8F08F0000A3
:1036D0002DE9F04F01F0070CDDF824E003EB0C04BA
:1036E000092C4FEAD10847D345B2002D20D43F29F9
:1036F0001ED8CCF1080BFF2323FA0BF940F29013EC
:10370000C2F2000302FA0CF603EBC813BEF1000F7D
:1037100018BFF64313F800A046EA09070AEA0709AA
:103720006FF0FF0747FA0BF73E4046EA09061E54C2
:10373000002D4BD4372949D804F1F703CCF1080701
:10374000FA40DBB24FF4FF7707FA03F340F2901729
:1037500008F10101C2F2000707EBC111BEF1000F31
:1037600018BFD2430F5C42EA030637409A433A43FC
:103770000A54BDE8F08F00BF43B2002B26D43F2986
:1037800088BFBDE8F08F611EC9B24FF4FF7340F2ED
:10379000901603FA01F1CCF10803FF27C2F20006EC
:1037A00002FA0CF2DF4006EBC816BEF1000F18BF9C
:1037B000D2431743355C0F432F406FF0FF0545FAA6
:1037C00003F323EA0101114039433154BDE8F08F7E
:1037D0002DE9F04F97B0002B0692129100F0F08285
:1037E000DDE920298246B9F1000F48461D464FEA1F
:1037F000D20318BF4FF0FF30082A02F007081690D6
:1038000004D2B8F1000F40F0C082D9E21298CDF88E
:103810000C8010F00708A3F10100059003F00300ED
:10382000089005EB450010904FEA85000293119037
:10383000079500F0C781C8F10801FF20C840149027
:103840006FF0FF0008411390A8F101000F91C0B282
:103850004FF4FF7101FA00F00E90C0430D90680024
:103860000A901C2000EAD200404200210C900995E9
:10387000CDF85480CDF810A00FE000BF10980B9940
:10388000013010900A98013101300A900998A9423C
:1038900000F10100099000F06F820AEB01000B912A
:1038A00041B240F2901E0029C2F2000EE6D4059902
:1038B0005FFA80FB032905D200240898002840F015
:1038C000DD80DBE7069C032508E000BF0C9804358B
:1038D000284403281198044400F0C880129800EB93
:1038E000C50AAAF11800C1B23F2930D80B98CA08FE
:1038F00014F8009015980EEBC21309FA00F616980A
:10390000149F464013F80BE0139846EA070C0EEAA2
:103910000C0740F2901E0640DDF85480C2F2000E03
:103920003743372903F80B7011D8511C0F9A0EEB4F
:10393000C11129FA02F0169A0E9B504011F80B2083
:1039400003431A400D9B1840104301F80B00AAF1E5
:103950001000C1B23F2929D80998CA0814F800C03C
:1039600016980CFA08F343400EEBC217149817F898
:103970000B6018433040139EDDF8548033401843E9
:10398000372907F80B0011D80F99501C169A2CFAFA
:1039900001F10EEBC0100E9B514010F80B200B43B1
:1039A0001A400D9B1940114300F80B10AAF10800B2
:1039B000C1B23F2929D80A98CA0814F800C016983D
:1039C0000CFA08F343400EEBC217149817F80B607B
:1039D00018433040139EDDF8548033401843372994
:1039E00007F80B0011D80F99501C169A2CFA01F108
:1039F0000EEBC0100E9B514010F80B200B431A40E9
:103A00000D9B1940114300F80B105FFA8AF13F2912
:103A10003FF65CAF1098CA0814F800C016980CFA6C
:103A200008F343400EEBC217149817F80B601843C5
:103A30003040139EDDF8548033401843372907F88F
:103A40000B003FF643AF0F99501C169A2CFA01F168
:103A50000EEBC0100E9B514010F80B200B431A4088
:103A60000D9B1940114300F80B102FE7EC1EDDF8F9
:103A700010A0079D089800283FF400AF12980699FF
:103A800000EBC4000B9AC0B23F2801EB020C2BD80C
:103A900004FB05F11CF80190C208169909FA08F315
:103AA0000EEBC217149D4B4017F80B6013991D4382
:103AB0002E40079D0B40DDF854803343372807F82C
:103AC0000B3011D8501C0F9A0EEBC01029FA02F1DE
:103AD000169A0E9B514010F80B200B431A400D9B79
:103AE0001940114300F80B10089801283FF4C6AEA6
:103AF0001298611C00EBC100C0B23F282AD869436C
:103B00001CF80190C208169909FA08F30EEBC217C7
:103B1000149D4B4017F80B6013991D432E40079DD1
:103B20000B40DDF854803343372807F80B3011D8A9
:103B3000501C0F9A0EEBC01029FA02F1169A0E9B38
:103B4000514010F80B200B431A400D9B19401143B4
:103B500000F80B10089802283FF490AE1298A11CB0
:103B600000EBC100C0B23F283FF688AE69431CF8A5
:103B70000110169FC20801FA08F37B400EEBC21732
:103B8000149D17F80B60139C1D432E40079D234086
:103B9000DDF854803343372807F80B303FF66EAE1C
:103BA000501C0F9A0EEBC010D140169A0E9B51403C
:103BB00010F80B200B431A400D9B1940114300F8DD
:103BC0000B105BE61C2000EAD2004FEA450EC0F164
:103BD000000C0024A9460AE01098013401300EF1CF
:103BE000010EAC4209F10109109000F0C5800AEB0A
:103BF000040041B20029EFD40599C3B2032905D2CC
:103C00000020089900296BD1E6E700BF069803223F
:103C100007E000BF04320CEB0201032911990844AC
:103C200058D0129901EBC201A1F11805EEB23F2E56
:103C30000ED9A1F11005EEB23F2E1AD9A1F1080557
:103C4000EEB23F2E27D9CDB23F2DE3D833E000BFEF
:103C5000065D169F05F0F8057E4040F29017C2F20F
:103C6000000707EB0515EE54A1F11005EEB23F2E4B
:103C7000E4D810F80960169F05F0F8057E4040F280
:103C80009017C2F2000707EB0515EE54A1F10805E5
:103C9000EEB23F2ED7D810F80E60169F05F0F8054B
:103CA0007E4040F29017C2F2000707EB0515EE5474
:103CB000CDB23F2DAED8109D169E455D01F0F801A6
:103CC000754040F29016C2F2000606EB0111CD5489
:103CD000A0E700BF079DD01E089900293FF47CAFE4
:103CE000129901EBC002D1B23F29069921440ED8A6
:103CF000079D169E45434D5D02F0F802754040F267
:103D00009016C2F2000606EB0212D554079D089ADF
:103D1000012A3FF461AF129A451C02EBC502D6B2EC
:103D20003F2E0DD8079E02F0F80275434D5D169E9A
:103D3000754040F29016C2F2000606EB0212D5540E
:103D4000089A079D022A3FF447AF821C129800EBA5
:103D5000C200C5B23F2D079D3FF63EAF6A43895C66
:103D6000169A00F0F800514040F29012C2F20002A0
:103D700002EB0010C1542FE7DDF80C80DDE92029AB
:103D8000029BB8F1000F1BD0D5B1129902F0F800D8
:103D900001440698CEB213FB05046D424FF0FF308C
:103DA000471C204442780AEB0700C0B23146434624
:103DB000CDF80090FFF78CFCE81901303846EFD1C0
:103DC00017B0BDE8F08F00002DE9F04F81B040F250
:103DD0009258C2F200084020454640F2905740F207
:103DE000D46605F8010BC2F20007B020C2F200064B
:103DF00078704FF0FF34304678213A460223009421
:103E00004FF0020AFDF7F0F8304678213A460223D7
:103E100087F801A00094FDF7E7F84FF0100B30464B
:103E200078213A46022387F801B00094FDF7DCF8C8
:103E300040F29019C2F20009284649468022FCF758
:103E400013FB30467821424681230094FDF7CCF8DD
:103E5000B1207870304678213A4602230094FDF76D
:103E6000C3F8304678213A46022387F801A000942F
:103E7000FDF7BAF8304678213A46022387F801B0B8
:103E80000094FDF7B1F809F1800128468022FCF783
:103E9000EBFA30467821424681230094FDF7A4F8DE
:103EA000B2207870304678213A4602230094FDF71C
:103EB0009BF8304678213A46022387F801A0009407
:103EC000FDF792F8304678213A46022387F801B090
:103ED0000094FDF789F809F5807128468022FCF7E7
:103EE000C3FA30467821424681230094FDF77CF8DE
:103EF000B3207870304678213A4602230094FDF7CB
:103F000073F8304678213A46022387F801A00094DE
:103F1000FDF76AF8304678213A46022387F801B067
:103F20000094FDF761F809F5C07128468022FCF77E
:103F30009BFA30467821424681230094FDF754F8DD
:103F4000B4207870304678213A4602230094FDF779
:103F50004BF8304678213A46022387F801A00094B6
:103F6000FDF742F8304678213A46022387F801B03F
:103F70000094FDF739F809F5007128468022FCF716
:103F800073FA30467821424681230094FDF72CF8DD
:103F9000B5207870304678213A4602230094FDF728
:103FA00023F8304678213A46022387F801A000948E
:103FB000FDF71AF8304678213A46022387F801B017
:103FC0000094FDF711F809F5207128468022FCF7CE
:103FD0004BFA30467821424681230094FDF704F8DD
:103FE000B6207870304678213A4602230094FCF7D8
:103FF000FBFF304678213A46022387F801A000945F
:10400000FCF7F2FF304678213A46022387F801B0E8
:104010000094FCF7E9FF09F5407128468022FCF77F
:1040200023FA30467821424681230094FCF7DCFFD6
:10403000B7207870304678213A4602230094FCF786
:10404000D3FF304678213A46022387F801A0009436
:10405000FCF7CAFF304678213A46022387F801B0C0
:104060000094FCF7C1FF09F5607128468022FCF737
:10407000FBF930467821424681230094FCF7B4FFD7
:1040800001B0BDE8F08F000070B5642828BF64203F
:1040900000EE100A9FED171AB8EE400A80EE010AF2
:1040A0000C4601EE104AB8EE411A40F60005C4F283
:1040B000020520EE010ABDEEC00A10EE106A46B1FC
:1040C00028464FF400510022FCF7D0FE304600F0A5
:1040D0007FFCB44208BF70BDA01B84B228464FF4D9
:1040E00000510122FCF7C2FE2046BDE8704000F0FE
:1040F0006FBC00BF0000C8420000000000000000CC
:10410000EFF30980BFF36F8F154B1A681EF0100F85
:1041100008BF20ED108A20E9F04F10602DE909005A
:104120004FF0500080F31188BFF34F8FBFF36F8FB4
:1041300001F0E4FE4FF0000080F31188BDE80900B3
:1041400019680868B0E8F04F1EF0100F08BFB0EC17
:10415000108A80F30988BFF36F8F704700BF00BFDC
:1041600088000020000000000000000000000000A7
:10417000074B19680868B0E8F04F80F30988BFF36F
:104180006F8F4FF0000080F31188704700BF00BFB1
:1041900088000020012000F01BFCFBE780B54EF2F8
:1041A0001000CEF20000006802F078FC012808BF81
:1041B00080BDBDE8804001F0CBBF000070B592B07B
:1041C00006AC20463021FCF79CF9002543F6400060
:1041D0000595CDE90355CDE901550095C4F20200DE
:1041E0000168022641F080510160006800F08050B3
:1041F0000090009847F200000095C4F200000168AA
:1042000041F480410160006800F480400090009813
:104210000120099010200A9008200E90A820CDE9D6
:104220000F060420119020460696CDE90C65FDF797
:104230002BFA18B172B600BFFEE700BF0F20CDE920
:1042400001064FF4A05004904FF48050059001A84F
:1042500005210395FDF7E6F810B172B6FEE700BF41
:1042600012B070BD4EF68850CEF20000016841F4E5
:10427000700101607047000040F2B870C2F20000A7
:10428000FDF7BEBD10B540F6FF3E0368C4F2000E58
:1042900040F2004C7045C4F2010C25DCB0F1804FB7
:1042A0002FD040F20042C4F20002904229D040F6E2
:1042B0000002C4F20002904223D041F6FF72C4F221
:1042C0000002904227DC70453ADCB0F1804F5BD0B1
:1042D00040F20042C4F20002904255D040F6000283
:1042E000C4F200024EE000BF40F60042C4F20002F9
:1042F000904206D0604504D00022C4F201029042F0
:10430000DBD14A6823F07003134341F6FF72C4F215
:1043100000029042D7DD43F6FF72C4F201029042E0
:1043200020DC42F20002C4F2000290422CD00022B3
:10433000C4F20102904227D0604525D028E000BF9A
:1043400040F60042C4F2000290421DD041F6000245
:10435000C4F20002904217D041F60042C4F20002BB
:1043600010E000BF44F20002C4F2010290420BD000
:1043700044F60002C4F20102904205D044F2004229
:10438000C4F20102904203D1CA6823F4407313437C
:1043900023F080024B69D1F800E08C681A43026078
:1043A000C46240F48062C0F828E0624504BF096935
:1043B0000163012141610169C90708BF10BD01699D
:1043C00021F00101016110BD806B0021C185C18414
:1043D000FEF746B8806B01684A6990F84130212B9E
:1043E0002DD112F080022AD00021C184016851E849
:1043F000031F026821F0C00142E80313DBB101682A
:1044000051E8031F026821F0C00142E8031393B191
:10441000016851E8031F026821F0C00142E803135C
:104420004BB1016851E8031F026821F0C00142E866
:104430000313002BDAD1202180F84110016849696B
:1044400090F84220222A40F07D8011F0400179D07E
:104450000021C185016851E8031F026821F49071B1
:1044600042E80313BBB3016851E8031F026821F45B
:10447000907142E8031373B3016851E8031F0268A7
:1044800021F4907142E803132BB3016851E8031F34
:10449000026821F4907142E80313002BDAD11AE08C
:1044A000016851E8051F026821F0010142E8051387
:1044B000DBB1016851E8051F026821F0010142E803
:1044C000051393B1016851E8051F026821F001014D
:1044D00042E805134BB1016851E8051F026821F05D
:1044E000010142E80513002BDAD1016B012924D127
:1044F000016851E8031F026821F0100142E803132C
:10450000DBB1016851E8031F026821F0100142E8A5
:10451000031393B1016851E8031F026821F01001F1
:1045200042E803134BB1016851E8031F026821F010
:10453000100142E80313002BDAD1202180F8421049
:1045400000210163416C41F010014164FDF788BF17
:104550000168806B0968C90500F19F800021C18551
:10456000016851E8031F026821F4807142E80313D7
:10457000E3B1016851E8031F026821F4807142E849
:1045800003139BB1016851E8031F026821F4807195
:1045900042E8031353B1016851E8031F026821F494
:1045A000807142E80313002BDAD100BF016851E8A3
:1045B000051F026821F0010142E80513BBB3016841
:1045C00051E8051F026821F0010142E8051373B3A9
:1045D000016851E8051F026821F0010142E8051356
:1045E0002BB3016851E8051F026821F0010142E880
:1045F0000513002BDAD11AE0016851E8051F0268A3
:1046000021F0400142E80513DBB1016851E8051FC4
:10461000026821F0400142E8051393B1016851E8B6
:10462000051F026821F0400142E805134BB1016803
:1046300051E8051F026821F0400142E80513002BF4
:10464000DAD1202180F84210016B012925D100BF69
:10465000016851E8031F026821F0100142E80313CA
:10466000DBB1016851E8031F026821F0100142E844
:10467000031393B1016851E8031F026821F0100190
:1046800042E803134BB1016851E8031F026821F0AF
:10469000100142E80313002BDAD100214163016BC2
:1046A000012918BFFEF75ABA818DFDF793BE0000AD
:1046B000806B01214163016B012918BFFEF750BADD
:1046C000818D4908FDF786BE0168806B0968C905C0
:1046D00048BFFEF7A5BA0021C18400BF016851E8B8
:1046E000051F026821F0800142E8051383B30168C9
:1046F00051E8051F026821F0800142E805133BB331
:10470000016851E8051F026821F0800142E80513A5
:10471000F3B1016851E8051F026821F0800142E809
:104720000513002BDAD113E0016851E8031F02687A
:1047300041F0400142E80313002B08BF70470168B5
:1047400051E8031F026841F0400142E8031393B1AE
:10475000016851E8031F026841F0400142E8031379
:104760004BB1016851E8031F026841F0400142E883
:104770000313002BD8D17047806BFEF753BA0000AB
:1047800081B090F84210222921D183680246B3F506
:10479000805F09D152F8281F52F8183C002B63D0D3
:1047A00003685B680AE000BF52F8281F13B9036969
:1047B000002BF5D003685B6803F07F030B70116872
:1047C00001311160C18D01390A04C18502D001B0E7
:1047D000704700BF0168CA6822F02002CA60CA6838
:1047E00022F48072CA604A6922F001024A612021E3
:1047F00080F8421000214163026B012A3CD1016321
:10480000016851E8031F026821F0100142E8031318
:10481000DBB1016851E8031F026821F0100142E892
:10482000031393B1016851E8031F026821F01001DE
:1048300042E803134BB1016851E8031F026821F0FD
:10484000100142E80313002BDAD101680A68D2068E
:1048500006D5002200920A680092496800910099EA
:10486000818D01B0FDF7B6BD026852686FF35F221B
:1048700021F8022B8162A5E701B0FEF76FB90000B5
:10488000B0B50446006804F108030ECB056919436E
:1048900025F440552A4302616269E3691143C26805
:1048A000194349F20C639A431143C1604169A269FB
:1048B00021F4407141F20043114340F48062C4F29C
:1048C00001039A42416103D1FCF792FE02E000BF6E
:1048D000FCF77AFEE1694FF69C7563681922C0F611
:1048E000FF75B1F5004FA0FB02011FD15A00DB0F8D
:1048F000FBF7D8FC48F21F51C5F2EB11A0FB0123D6
:104900005A0905F1805302FB0300322303EBC00078
:10491000A0FB01014FF4F87000EA111000EB021047
:10492000C1F34211084421688860B0BD9A009B0F12
:10493000FBF7B8FC48F21F51C5F2EB11A0FB0123B5
:104940005A0902FB0500322303EB0010A0FB010112
:10495000F02000EA511000EB0210C1F343110844AB
:1049600021688860B0BD000040F60000C2F200007F
:10497000FDF778BDFEE70000FCF76EFCFFF71EFCBC
:10498000FEF7CEFBFEF760FBFEF752FCFEF7D8FC0D
:10499000FEF734FCFEF710FC40F6000040F698519C
:1049A000C2F20000C2F200018022FDF721FC40F2B9
:1049B0001460C2F200000068016821F00801016083
:1049C00000F01EF8FEF764FB00F02EF8FEE7000092
:1049D000EFF3058100291CBF6FF005007047002828
:1049E00004BF0020704780B501F0D8F8002080BDDA
:1049F000EFF30580002808BF02F060B802F064B849
:104A0000EFF3058000281CBF6FF00500704740F2EF
:104A10008C10C2F200000168002911BF4FF0FF3076
:104A20000121016000207047EFF3058000281CBFC2
:104A30006FF00500704740F28C10C2F20000016870
:104A400001291CBF4FF0FF30704780B54EF61F5153
:104A5000CEF2000100220A700221016001F0CEF9BD
:104A6000002080BDB0B582B000294FF00004EFF304
:104A7000058318BF002803D1204602B0B0BD00BF97
:104A8000002BF9D1D2B1D2E902352BB3502DF3D39B
:104A9000D2F810C0BCF1000FEED0556901FB00F454
:104AA000A5424FF00004E7D315466246009401F09A
:104AB000A9FB0028E0D02C6805E000BF002201F02F
:104AC0005FFB0028D8D02146054601F011F82C469E
:104AD000204602B0B0BD00BF002DCDD11369002B20
:104AE000CAD15369002BC7D11546002201F048FBFB
:104AF0000028E0D1C0E70000F0B585B08C46002367
:104B00000493EFF30581B0B3A9BB2AB39469002CD9
:104B100008BF1824382C2ED81179C9072BD1566913
:104B2000D2E902574FEA960E1168002E734608BF6D
:104B300080231DB35C2F25D312690023002A18BFE0
:104B4000002E18D0CDE9004272466346029501F06E
:104B500069FF05B0F0BD00BF80231824002104AF19
:104B60009AB26346CDE9004701F02CFF0023049977
:104B7000012808BF0B46184605B0F0BD17B91269E9
:104B8000002AECD00023184605B0F0BD2DE9F04115
:104B9000044600F0B7FE40F28806C2F20006F06854
:104BA00040F638150130F0603068C2F2000558B1A7
:104BB0003069002840F007813068E16AC06A8842A5
:104BC00098BF3460FFE000BF3460F068012840F017
:104BD000FA80284600F03CFE05F1140000F038FE93
:104BE00005F1280000F034FE05F13C0000F030FE35
:104BF00005F1500000F02CFE05F1640000F028FEE5
:104C000005F1780000F024FE05F18C0000F020FE94
:104C100005F1A00000F01CFE05F1B40000F018FE44
:104C200005F1C80000F014FE05F1DC0000F010FEF4
:104C300005F1F00000F00CFE05F5827000F008FEB2
:104C400005F58C7000F004FE05F5967000F000FE8E
:104C500005F5A07000F0FCFD05F5AA7000F0F8FD68
:104C600005F5B47000F0F4FD05F5BE7000F0F0FD40
:104C700005F5C87000F0ECFD05F5D27000F0E8FD18
:104C800005F5DC7000F0E4FD05F5E67000F0E0FDF0
:104C900005F5F07000F0DCFD05F5FA7000F0D8FDC8
:104CA00005F5027000F0D4FD05F5077000F0D0FDA9
:104CB00005F50C7000F0CCFD05F5117000F0C8FD95
:104CC00005F5167000F0C4FD05F51B7000F0C0FD81
:104CD00005F5207000F0BCFD05F5257000F0B8FD6D
:104CE00005F52A7000F0B4FD05F52F7000F0B0FD59
:104CF00005F5347000F0ACFD05F5397000F0A8FD45
:104D000005F53E7000F0A4FD05F5437000F0A0FD30
:104D100005F5487000F09CFD05F54D7000F098FD1C
:104D200005F5527000F094FD05F5577000F090FD08
:104D300005F55C7000F08CFD05F5617000F088FDF4
:104D400005F5667000F084FD05F56B7000F080FDE0
:104D500005F5707000F07CFD05F5757000F078FDCC
:104D600005F57A7000F074FD05F57F7000F070FDB8
:104D700005F5826000F06CFD05F2244000F068FD4E
:104D800005F5876000F064FD05F24C4000F060FD21
:104D900040F26418C2F20008404600F059FD08F1E4
:104DA0001407384600F054FD06F1640000F050FD91
:104DB00006F13C0000F04CFD06F1500000F048FD0B
:104DC000C6F81C8037627068716A421CE06A7260C3
:104DD0008842626488BF706200EB800005EB80004F
:104DE000211D00F077FD00F0B1FD306988B1306819
:104DF000E16AC06A884228BFBDE8F0814EF60450DF
:104E0000CEF200004FF080510160BFF34F8FBFF32F
:104E10006F8FBDE8F081000040F2880540F638163B
:104E20004EF60458C2F20005C2F20006CEF20008A7
:104E30004FF0805703E000BF204600F09FFDA868B8
:104E4000D0B100F05FFDA86CC468201D00F0D2FC5A
:104E5000E8680138E860A8680138A86000F076FDCD
:104E600094F859000228EAD00128E5D070B9206BE7
:104E700000F084FDE0E700BF30680228DFD3C8F807
:104E80000070BFF34F8FBFF36F8FD8E74FF0500024
:104E900080F31188BFF36F8FBFF34F8FFEE70000E1
:104EA0002DE9F0470A9C8246206B16460F46DDE945
:104EB00008599100A5229846FBF71BFB206B002F99
:104EC00000EB8600A0F1040020F0070644D03878FB
:104ED00084F83400D8B3787884F83500B8B3B8785B
:104EE00084F8360098B3F87884F8370078B33879C6
:104EF00084F8380058B3787984F8390038B3B87931
:104F000084F83A0018B3F87984F83B00F8B1387A9D
:104F100084F83C00D8B1787A84F83D00B8B1B87A0A
:104F200084F83E0098B1F87A84F83F0078B1387B75
:104F300084F8400058B1787B84F8410038B1B87BE0
:104F400084F8420000281CBFF87B84F8430000204E
:104F500084F8430003E000BF002084F834000027F9
:104F6000201D372D28BF3725E562C4E9135700F00F
:104F70007BFC04F1180000F077FCC5F13800A0615B
:104F800030465146424624616462676584F8587031
:104F900000F028FBB9F1000F206018BFC9F80040ED
:104FA000BDE8F08708480068006880F308884FF083
:104FB000000080F3148862B661B6BFF34F8FBFF371
:104FC0006F8F00DF00BF000008ED00E081B000201F
:104FD000009040F20C00C2F2000000684FF0500157
:104FE00081F31188BFF36F8FBFF34F8F013007D06C
:104FF000FEE700BF009830B9009820B9009810B9BA
:1050000000980028F6D001B07047000088B040F248
:10501000001AC2F2000A0DF11009EB46DAF8080096
:1050200005681DB1C068046801E000BF002400F0FD
:105030005DFF01F043FDDAF810100646884220D3E8
:10504000002DCAF8106051D0B4424FD801F04AFE8A
:10505000DAF80800C068C7683D1D284600F0CAFBA2
:1050600097F82800410745D400F0FA0087F8280097
:1050700082E000BF7860DAF8080029463F6100F05E
:10508000F7FBDAF80800016831B3C068C768046844
:105090003D1D284600F0AEFB396A3846884797F830
:1050A00028004007EDD5B8692044A042E2D8DAF8DC
:1050B0000000002800F04081002004A991C101F007
:1050C000EDFCDAF8000049460022002301F008F95F
:1050D0000028D6D130E100BFDAF80C10CAF8106011
:1050E000CAE9021001F0FEFD4FE000BF65B10022E9
:1050F00010E000BFB8693F610119B14279601DD964
:105100000AF108001FE000BFDAF80C000068B0FAEE
:1051100080F04209DAF80000A11B00F015FD01F053
:10512000E1FD90BB4EF60450CEF200004FF08051EE
:105130000160BFF34F8FBFF36F8F26E0311B8142B9
:1051400006D20AF10C000068294600F091FB13E03A
:10515000DAF80000002800F00D81002004A991C1B8
:1051600001F09CFCDAF8000049460022002301F01F
:10517000B7F8002800F0FE80396A3846884704E016
:105180000AF10C02106800F073FBDAF800005946CF
:10519000002201F0A9FA00283FF440AF0098B0F1D6
:1051A000FF3F06DCDDE901200399904700980028C5
:1051B000EBD4029E706910B1301D00F01BFB01F0B2
:1051C0007DFCDAF81010074688420CD30098CAF824
:1051D000107009283DD9D8E76860DAF80800214640
:1051E0002D6100F045FBDAF80800016841B3C068A2
:1051F000C568D0F800802C1D204600F0FBFA296A13
:105200002846884795F828004007ECD5A86940440F
:105210004045E1D8DAF80000002800F08380002043
:10522000CDE90408069501F039FCDAF8000049469A
:105230000022002301F054F80028D4D172E000BF0E
:10524000DAF80C10CAE902100098CAF810700928A0
:105250009BD8DFE800F005050557415F050557417C
:1052600096F82800B26940F00101019886F82810EC
:105270001318314641F8043FBB42366108D98742D2
:105280000AF10802BFF47EAF834205D27AE700BF7D
:10529000381A9042FFF474AF316A3046884796F866
:1052A000280040077FF571AFDAF8000000284DD0E4
:1052B0000198B169069608440021CDE9041001F077
:1052C000EDFBDAF8000049460022002301F008F85F
:1052D00000287FF45AAF39E096F8280040F0010129
:1052E000019886F828100028B06139D0384431463A
:1052F0000AF10C0241F8040F3661B84288BF0AF186
:1053000008023FE796F8280000F0FE0086F8280023
:105310003BE700BF96F828008107F5D4304600F03F
:105320002DFB32E74FF0500080F31188BFF36F8FF1
:10533000BFF34F8FFEE700BF4FF0500080F311889E
:10534000BFF36F8FBFF34F8FFEE700BF4FF05000EA
:1053500080F31188BFF36F8FBFF34F8FFEE700BF5D
:105360004FF0500080F31188BFF36F8FBFF34F8F62
:10537000FEE700BF4FF0500080F31188BFF36F8F3E
:10538000BFF34F8FFEE70000F0B581B0044600F098
:10539000B9FA94F94560012E0FDB04F1240500BF32
:1053A000286850B1284601F063FC002818BF00F0BF
:1053B000A5FCF0B2013E0128F2D8FF2684F8456032
:1053C00000F0C4FA00F09EFA94F94470012F0EDB4D
:1053D00004F11005286850B1284601F049FC002866
:1053E00018BF00F08BFCF8B2013F0128F2D884F816
:1053F000446001B0BDE8F04000F0A8BA70B50446C2
:1054000000F074FD40F23C1CC2F2000CDCF80420F9
:1054100012B19CF8000020E040F61A60C2F20000D1
:10542000420700F5705200F1070122F0070218BF91
:1054300021F007000021A2F10803CCE90601CCF815
:10544000043042E90211DCF80420191AC0E90021F5
:105450000120CCE902118CF800000025002C4FF04F
:10546000000148BF01215AD0084058D124F007005C
:1054700000F11003600708BF04F10803DCF808001E
:10548000591E81424BD2604650F818EFDEF80450A6
:105490009D422CD2DEF80010C1B174464D689D4289
:1054A00018D20E68B6B175689D4217D23068A8B19F
:1054B00045689D4216D20468A4B165689D4215D224
:1054C0002168A6460029E9D111E000BF0CF11800BF
:1054D0000DE000BF8E46204609E000BFB6460846F4
:1054E00005E000BF8646304601E000BFA64696456F
:1054F00014D00268DEF80040E91A112904604FD385
:105500000EEB0305680719D04FF0500080F31188A7
:10551000BFF36F8FBFF34F8FFEE700BF002501F091
:10552000E1FB68075CD04FF0500080F31188BFF3B7
:105530006F8FBFF34F8F00BFFEE700BF0CF1180065
:105540006960CEF8043000BF0168A9420AD2086839
:10555000A8420BD20168A94204D208680B46A842AF
:10556000F2D304E00346084601E000BF0B465C6846
:1055700069681E19AE4202D121441D4659606C185B
:10558000844201D0044607E0DCF80440A04203D086
:10559000D0E9004008446860AB422C6018BF1D6031
:1055A000DEF80400DCE9021302F10805091A994249
:1055B000CCF8081038BFCCF80C109CF8001000296B
:1055C0004FF0000118BF40F00040CEE90010DCF8B9
:1055D00010000130CCF8100001F084FB6807A2D164
:1055E000284670BD034644F6CD7021F00101C0F697
:1055F00000004FF0807C03E903106FF00201A3F17B
:10560000440043E90912704782B0FFF7F1F940F214
:10561000700801260027C2F200080DF1030901AD50
:1056200001240190D8F804004946002201F05CF8FA
:105630009DF80310012808BF0C46F8B20A21FEF7B6
:1056400023FD70B2E1B211FB007007B2012FB8BFA9
:10565000012628460A21632FC8BF4FF0FF3600F00D
:10566000DDFADFE782B0FDF78DFEFDF781FFFEF783
:10567000ABFBFFF7BDF947F23C554FF0000802279E
:105680000FF24409C0F6000501AE0024019000BFEE
:10569000FDF76EFFE0B218214A462B46CDF8008098
:1056A000FDF770FFFEF790FB44FA87F004B2012C7F
:1056B000B8BF022730460A214F2CC8BF6FF0010740
:1056C00000F0ACFAE4E700BFE5BDADE5AE87E786E4
:1056D00099000000A0B041A04168D0F81480089162
:1056E000816840F270050791C16840F6186A06911A
:1056F000016934A00591416840F600070491816872
:10570000C2F200050391C16810AC029101694069C1
:10571000C2F2000A4FF0000B0FF2A00909AEC2F26C
:1057200000070191009012E02C48099008980A9017
:1057300007980B9006980C900598CDE90D08304617
:10574000FAF773FE82B238463146FDF70BFA286845
:1057500021464FF0FF3200F0C7FF0128F7D1BAF819
:105760000000494604F800B02046FAF720FE002861
:10577000DAD00530FAF70EFE411E092910D8696803
:105780008DF83F0008460DF13F010022002300F094
:10579000A7FD44F64F30C0F20A000990CFE700BFE2
:1057A0000848099004980A9003980B9002980C906E
:1057B00001980D9000980E90C1E700BF737465705A
:1057C0003D0000004552523A2073746570206D759B
:1057D000737420626520312D31300A004552523AEF
:1057E000207573652027737465703D3C312D313011
:1057F0003E270A000169D0E90132D1F804C09A605D
:105800008445536008BF4A6000220261086801387D
:10581000086008687047000044F62043C2F20003A5
:10582000036044F62020C2F200000860802010606F
:105830007047000045F27C03C2F20003036044F6A7
:105840007C40C2F2000008604FF480701060704726
:105850004FF0FF31024642F8081F00214260C0E9C4
:1058600003220160704700000021016170470000C1
:1058700010B5D1F800C01CF1010213D000F10804EA
:1058800062681368634511D853681C68644511D871
:105890005A68146864450FD854682368A64663455F
:1058A000EED90BE00269D2F804E007E09646224602
:1058B00004E000BF9E4601E096461A46C1F804E0A7
:1058C000CEF808108A6051600861016801310160FA
:1058D00010BD0000D0F800C0436808619A68C1E9B3
:1058E0000132516099600CF10101016070470000C4
:1058F000DFF80C00016841F470010160704700009E
:1059000088ED00E04FF0500080F31188BFF36F8FF7
:10591000BFF34F8F40F20C00C2F2000001684A1C36
:10592000026009B1704700BF4EF60450CEF200008D
:105930000068000608BF70474FF0500080F31188E0
:10594000BFF36F8FBFF34F8FFEE7000040F20C00F4
:10595000C2F20000016839B10139016018BF704717
:10596000002080F3118870474FF0500080F31188B9
:10597000BFF36F8FBFF34F8FFEE7000070B50028B5
:1059800008BF70BD40F23C14C2F20004217850F808
:10599000042C002918BF4FF0004111420ED0A0F195
:1059A00008052B68A3B14FF0500080F31188BFF3B6
:1059B0006F8FBFF34F8F00BFFEE700BF4FF0500067
:1059C00080F31188BFF36F8FBFF34F8FFEE700BFE7
:1059D00022EA010140F8041C064600F087FA56F856
:1059E000040CA1680144A16004F118010B68AB42EA
:1059F0000AD21968A94213D20B68AB4204D21968C3
:105A00001A46A942F2D301E00A4619465368D6184D
:105A1000AE420AD02B188B420DD00B4612E000BFCD
:105A20001A465368D618AE42F4D118441546506051
:105A30002B188B42F1D16368994203D0D1E9003130
:105A400008446860AA422B6018BF15606069013085
:105A50006061BDE8704001F045B900004EF21000F1
:105A6000CEF2000000210160816040F20801C2F224
:105A70000001096844F6D352C1F26202A1FB02128E
:105A80004FF0FF3101EB9211416007210160704737
:105A900040F25C10EFF305811029C2F2000011D32F
:105AA0004EF2F032CEF20002895C0278914209D2C5
:105AB0004FF0500080F31188BFF36F8FBFF34F8F0B
:105AC000FEE700BF4EF60C51CEF2000109684068B7
:105AD00001F4E061814298BF70474FF0500080F3BD
